{
  "contractName": "MenuTeamWallet",
  "abi": [
    {
      "constant": true,
      "inputs": [],
      "name": "menuToken",
      "outputs": [
        {
          "name": "",
          "type": "address"
        }
      ],
      "payable": false,
      "stateMutability": "view",
      "type": "function"
    },
    {
      "constant": true,
      "inputs": [],
      "name": "FREEZE_TIME",
      "outputs": [
        {
          "name": "",
          "type": "uint256"
        }
      ],
      "payable": false,
      "stateMutability": "view",
      "type": "function"
    },
    {
      "constant": true,
      "inputs": [],
      "name": "crowdsaleContract",
      "outputs": [
        {
          "name": "",
          "type": "address"
        }
      ],
      "payable": false,
      "stateMutability": "view",
      "type": "function"
    },
    {
      "constant": true,
      "inputs": [],
      "name": "totalWithdrawn",
      "outputs": [
        {
          "name": "",
          "type": "uint256"
        }
      ],
      "payable": false,
      "stateMutability": "view",
      "type": "function"
    },
    {
      "constant": true,
      "inputs": [],
      "name": "startTime",
      "outputs": [
        {
          "name": "",
          "type": "uint256"
        }
      ],
      "payable": false,
      "stateMutability": "view",
      "type": "function"
    },
    {
      "constant": true,
      "inputs": [],
      "name": "owner",
      "outputs": [
        {
          "name": "",
          "type": "address"
        }
      ],
      "payable": false,
      "stateMutability": "view",
      "type": "function"
    },
    {
      "constant": false,
      "inputs": [
        {
          "name": "newOwner",
          "type": "address"
        }
      ],
      "name": "transferOwnership",
      "outputs": [],
      "payable": false,
      "stateMutability": "nonpayable",
      "type": "function"
    },
    {
      "inputs": [
        {
          "name": "_menuToken",
          "type": "address"
        }
      ],
      "payable": false,
      "stateMutability": "nonpayable",
      "type": "constructor"
    },
    {
      "anonymous": false,
      "inputs": [
        {
          "indexed": false,
          "name": "_teamMember",
          "type": "address"
        },
        {
          "indexed": false,
          "name": "_tokenAmount",
          "type": "uint256"
        }
      ],
      "name": "LogWithdrawal",
      "type": "event"
    },
    {
      "anonymous": false,
      "inputs": [
        {
          "indexed": true,
          "name": "previousOwner",
          "type": "address"
        },
        {
          "indexed": true,
          "name": "newOwner",
          "type": "address"
        }
      ],
      "name": "OwnershipTransferred",
      "type": "event"
    },
    {
      "constant": false,
      "inputs": [
        {
          "name": "_crowdsaleContract",
          "type": "address"
        }
      ],
      "name": "setCrowdsaleContract",
      "outputs": [],
      "payable": false,
      "stateMutability": "nonpayable",
      "type": "function"
    },
    {
      "constant": false,
      "inputs": [
        {
          "name": "freezeStartTime",
          "type": "uint256"
        }
      ],
      "name": "setFreezeTime",
      "outputs": [],
      "payable": false,
      "stateMutability": "nonpayable",
      "type": "function"
    },
    {
      "constant": false,
      "inputs": [
        {
          "name": "_teamMember",
          "type": "address"
        },
        {
          "name": "_tokenAmount",
          "type": "uint256"
        }
      ],
      "name": "addTeamMember",
      "outputs": [
        {
          "name": "success",
          "type": "bool"
        }
      ],
      "payable": false,
      "stateMutability": "nonpayable",
      "type": "function"
    },
    {
      "constant": false,
      "inputs": [],
      "name": "transferTeamTokens",
      "outputs": [
        {
          "name": "success",
          "type": "bool"
        }
      ],
      "payable": false,
      "stateMutability": "nonpayable",
      "type": "function"
    }
  ],
  "bytecode": "0x6060604052341561000f57600080fd5b604051602080610aab83398101604052808051906020019091905050336000806101000a81548173ffffffffffffffffffffffffffffffffffffffff021916908373ffffffffffffffffffffffffffffffffffffffff16021790555060008173ffffffffffffffffffffffffffffffffffffffff161415151561009157600080fd5b80600160006101000a81548173ffffffffffffffffffffffffffffffffffffffff021916908373ffffffffffffffffffffffffffffffffffffffff160217905550336000806101000a81548173ffffffffffffffffffffffffffffffffffffffff021916908373ffffffffffffffffffffffffffffffffffffffff16021790555050610989806101226000396000f3006060604052600436106100af576000357c0100000000000000000000000000000000000000000000000000000000900463ffffffff16806318cd3ace146100b45780631a0388731461010957806331616395146101325780634b319713146101875780636596cff3146101b057806378e97925146101e95780638528b528146102125780638d13192b1461023f5780638da5cb5b14610299578063aafc057f146102ee578063f2fde38b14610311575b600080fd5b34156100bf57600080fd5b6100c761034a565b604051808273ffffffffffffffffffffffffffffffffffffffff1673ffffffffffffffffffffffffffffffffffffffff16815260200191505060405180910390f35b341561011457600080fd5b61011c610370565b6040518082815260200191505060405180910390f35b341561013d57600080fd5b610145610378565b604051808273ffffffffffffffffffffffffffffffffffffffff1673ffffffffffffffffffffffffffffffffffffffff16815260200191505060405180910390f35b341561019257600080fd5b61019a61039e565b6040518082815260200191505060405180910390f35b34156101bb57600080fd5b6101e7600480803573ffffffffffffffffffffffffffffffffffffffff169060200190919050506103a4565b005b34156101f457600080fd5b6101fc610443565b6040518082815260200191505060405180910390f35b341561021d57600080fd5b610225610449565b604051808215151515815260200191505060405180910390f35b341561024a57600080fd5b61027f600480803573ffffffffffffffffffffffffffffffffffffffff16906020019091908035906020019091905050610656565b604051808215151515815260200191505060405180910390f35b34156102a457600080fd5b6102ac610701565b604051808273ffffffffffffffffffffffffffffffffffffffff1673ffffffffffffffffffffffffffffffffffffffff16815260200191505060405180910390f35b34156102f957600080fd5b61030f6004808035906020019091905050610726565b005b341561031c57600080fd5b610348600480803573ffffffffffffffffffffffffffffffffffffffff169060200190919050506107ea565b005b600160009054906101000a900473ffffffffffffffffffffffffffffffffffffffff1681565b6301e1338081565b600460009054906101000a900473ffffffffffffffffffffffffffffffffffffffff1681565b60035481565b6000809054906101000a900473ffffffffffffffffffffffffffffffffffffffff1673ffffffffffffffffffffffffffffffffffffffff163373ffffffffffffffffffffffffffffffffffffffff161415156103ff57600080fd5b80600460006101000a81548173ffffffffffffffffffffffffffffffffffffffff021916908373ffffffffffffffffffffffffffffffffffffffff16021790555050565b60025481565b6000806104656301e1338060025461093f90919063ffffffff16565b421015151561047357600080fd5b600560003373ffffffffffffffffffffffffffffffffffffffff1673ffffffffffffffffffffffffffffffffffffffff1681526020019081526020016000205490506000600560003373ffffffffffffffffffffffffffffffffffffffff1673ffffffffffffffffffffffffffffffffffffffff16815260200190815260200160002081905550600160009054906101000a900473ffffffffffffffffffffffffffffffffffffffff1673ffffffffffffffffffffffffffffffffffffffff1663a9059cbb33836000604051602001526040518363ffffffff167c0100000000000000000000000000000000000000000000000000000000028152600401808373ffffffffffffffffffffffffffffffffffffffff1673ffffffffffffffffffffffffffffffffffffffff16815260200182815260200192505050602060405180830381600087803b15156105c757600080fd5b6102c65a03f115156105d857600080fd5b50505060405180519050507fb4214c8c54fc7442f36d3682f59aebaf09358a4431835b30efb29d52cf9e1e913382604051808373ffffffffffffffffffffffffffffffffffffffff1673ffffffffffffffffffffffffffffffffffffffff1681526020018281526020019250505060405180910390a1600191505090565b60008060009054906101000a900473ffffffffffffffffffffffffffffffffffffffff1673ffffffffffffffffffffffffffffffffffffffff163373ffffffffffffffffffffffffffffffffffffffff161415156106b357600080fd5b81600560008573ffffffffffffffffffffffffffffffffffffffff1673ffffffffffffffffffffffffffffffffffffffff168152602001908152602001600020819055506001905092915050565b6000809054906101000a900473ffffffffffffffffffffffffffffffffffffffff1681565b600460009054906101000a900473ffffffffffffffffffffffffffffffffffffffff1673ffffffffffffffffffffffffffffffffffffffff163373ffffffffffffffffffffffffffffffffffffffff1614151561078257600080fd5b600073ffffffffffffffffffffffffffffffffffffffff16600460009054906101000a900473ffffffffffffffffffffffffffffffffffffffff1673ffffffffffffffffffffffffffffffffffffffff16141515156107e057600080fd5b8060028190555050565b6000809054906101000a900473ffffffffffffffffffffffffffffffffffffffff1673ffffffffffffffffffffffffffffffffffffffff163373ffffffffffffffffffffffffffffffffffffffff1614151561084557600080fd5b600073ffffffffffffffffffffffffffffffffffffffff168173ffffffffffffffffffffffffffffffffffffffff161415151561088157600080fd5b8073ffffffffffffffffffffffffffffffffffffffff166000809054906101000a900473ffffffffffffffffffffffffffffffffffffffff1673ffffffffffffffffffffffffffffffffffffffff167f8be0079c531659141344cd1fd0a4f28419497f9722a3daafe3b4186f6b6457e060405160405180910390a3806000806101000a81548173ffffffffffffffffffffffffffffffffffffffff021916908373ffffffffffffffffffffffffffffffffffffffff16021790555050565b600080828401905083811015151561095357fe5b80915050929150505600a165627a7a72305820d706fa818a92f329f85413ab8be6229aa88beaaf7f55ce088d78d8930c9b4c2e0029",
  "source": "pragma solidity 0.4.19;\r\n\r\nimport './MenuToken.sol';\r\nimport './Ownable.sol';\r\nimport './SafeMath.sol';\r\n\r\ncontract MenuTeamWallet is Ownable{\r\n  using SafeMath for uint256;\r\n\r\n  uint256 constant public FREEZE_TIME = 365 days; //accounts for ICO days\r\n  \r\n  MenuToken public menuToken;\r\n  uint256 public startTime;\r\n  uint256 public totalWithdrawn;\r\n  address public crowdsaleContract;\r\n\r\n  mapping (address => uint256) teamMember;\r\n  \r\n  event LogWithdrawal(address _teamMember, uint256 _tokenAmount);\r\n  \r\n\r\n  modifier withdrawalAvailable() { \r\n    require(now >= startTime.add(FREEZE_TIME)); \r\n    _; \r\n  }\r\n  \r\n  function MenuTeamWallet(address _menuToken)\r\n    public\r\n  {  \r\n    require(_menuToken != 0x0);\r\n    menuToken = MenuToken(_menuToken);\r\n    owner = msg.sender;\r\n  }\r\n\r\n  function setCrowdsaleContract(address _crowdsaleContract)\r\n    public\r\n    onlyOwner\r\n  {\r\n    crowdsaleContract = _crowdsaleContract;\r\n  }\r\n\r\n  \r\nfunction setFreezeTime(uint256 freezeStartTime)\r\n    external\r\n  {\r\n    require(msg.sender == crowdsaleContract);\r\n    require(crowdsaleContract != address(0));\r\n    startTime = freezeStartTime;\r\n  }\r\n  function addTeamMember(address _teamMember, uint256 _tokenAmount)\r\n    public\r\n    onlyOwner\r\n    returns(bool success)\r\n  {\r\n    teamMember[_teamMember] = _tokenAmount;\r\n    return true;\r\n  }\r\n\r\n  function transferTeamTokens()\r\n    public\r\n    withdrawalAvailable\r\n    returns (bool success)\r\n  {\r\n    uint256 sendValue = teamMember[msg.sender];\r\n    teamMember[msg.sender] = 0;\r\n    menuToken.transfer(msg.sender, sendValue);\r\n    LogWithdrawal(msg.sender, sendValue);\r\n    return true;\r\n  }\r\n\r\n}\r\n",
  "sourcePath": "D:\\Projects\\MenuBuzz\\contracts\\MenuTeamWallet.sol",
  "compiler": {
    "name": "solc",
    "version": "0.4.19+commit.c4cbbb05.Emscripten.clang"
  },
  "schemaVersion": "1.0.1",
  "updatedAt": "2018-02-27T20:53:18.996Z"
}