{
  "contractName": "MenuCrowdSale",
  "abi": [
    {
      "constant": true,
      "inputs": [
        {
          "name": "",
          "type": "address"
        }
      ],
      "name": "participants",
      "outputs": [
        {
          "name": "contrAmount",
          "type": "uint256"
        },
        {
          "name": "qtyTokens",
          "type": "uint256"
        },
        {
          "name": "remainingWei",
          "type": "uint256"
        },
        {
          "name": "wLStatus",
          "type": "uint8"
        },
        {
          "name": "bonusPaidCounter",
          "type": "uint8"
        }
      ],
      "payable": false,
      "stateMutability": "view",
      "type": "function"
    },
    {
      "constant": true,
      "inputs": [],
      "name": "menuToken",
      "outputs": [
        {
          "name": "",
          "type": "address"
        }
      ],
      "payable": false,
      "stateMutability": "view",
      "type": "function"
    },
    {
      "constant": true,
      "inputs": [],
      "name": "menuTeamWallet",
      "outputs": [
        {
          "name": "",
          "type": "address"
        }
      ],
      "payable": false,
      "stateMutability": "view",
      "type": "function"
    },
    {
      "constant": true,
      "inputs": [],
      "name": "cap",
      "outputs": [
        {
          "name": "",
          "type": "uint256"
        }
      ],
      "payable": false,
      "stateMutability": "view",
      "type": "function"
    },
    {
      "constant": true,
      "inputs": [],
      "name": "weiRaised",
      "outputs": [
        {
          "name": "",
          "type": "uint256"
        }
      ],
      "payable": false,
      "stateMutability": "view",
      "type": "function"
    },
    {
      "constant": true,
      "inputs": [],
      "name": "icoEndTime",
      "outputs": [
        {
          "name": "",
          "type": "uint256"
        }
      ],
      "payable": false,
      "stateMutability": "view",
      "type": "function"
    },
    {
      "constant": true,
      "inputs": [],
      "name": "timer",
      "outputs": [
        {
          "name": "",
          "type": "uint256"
        }
      ],
      "payable": false,
      "stateMutability": "view",
      "type": "function"
    },
    {
      "constant": true,
      "inputs": [],
      "name": "PRICE",
      "outputs": [
        {
          "name": "",
          "type": "uint256"
        }
      ],
      "payable": false,
      "stateMutability": "view",
      "type": "function"
    },
    {
      "constant": true,
      "inputs": [],
      "name": "owner",
      "outputs": [
        {
          "name": "",
          "type": "address"
        }
      ],
      "payable": false,
      "stateMutability": "view",
      "type": "function"
    },
    {
      "constant": true,
      "inputs": [],
      "name": "holdings",
      "outputs": [
        {
          "name": "",
          "type": "address"
        }
      ],
      "payable": false,
      "stateMutability": "view",
      "type": "function"
    },
    {
      "constant": false,
      "inputs": [
        {
          "name": "newOwner",
          "type": "address"
        }
      ],
      "name": "transferOwnership",
      "outputs": [],
      "payable": false,
      "stateMutability": "nonpayable",
      "type": "function"
    },
    {
      "constant": true,
      "inputs": [],
      "name": "ethPrice",
      "outputs": [
        {
          "name": "",
          "type": "uint256"
        }
      ],
      "payable": false,
      "stateMutability": "view",
      "type": "function"
    },
    {
      "inputs": [
        {
          "name": "_holdings",
          "type": "address"
        },
        {
          "name": "_menuToken",
          "type": "address"
        },
        {
          "name": "_teamWallet",
          "type": "address"
        }
      ],
      "payable": false,
      "stateMutability": "nonpayable",
      "type": "constructor"
    },
    {
      "payable": true,
      "stateMutability": "payable",
      "type": "fallback"
    },
    {
      "anonymous": false,
      "inputs": [
        {
          "indexed": false,
          "name": "_owner",
          "type": "address"
        },
        {
          "indexed": false,
          "name": "_msgsender",
          "type": "address"
        },
        {
          "indexed": false,
          "name": "_qtyOfTokensRequested",
          "type": "uint256"
        }
      ],
      "name": "LogTokensClaimed",
      "type": "event"
    },
    {
      "anonymous": false,
      "inputs": [
        {
          "indexed": false,
          "name": "_buyer",
          "type": "address"
        },
        {
          "indexed": false,
          "name": "_amount",
          "type": "uint256"
        }
      ],
      "name": "LogTokensReserved",
      "type": "event"
    },
    {
      "anonymous": false,
      "inputs": [
        {
          "indexed": false,
          "name": "_owner",
          "type": "address"
        },
        {
          "indexed": false,
          "name": "_amount",
          "type": "uint256"
        }
      ],
      "name": "LogOwnerWithdrawal",
      "type": "event"
    },
    {
      "anonymous": false,
      "inputs": [
        {
          "indexed": false,
          "name": "_participant",
          "type": "address"
        },
        {
          "indexed": false,
          "name": "_amount",
          "type": "uint256"
        }
      ],
      "name": "LogRefundWei",
      "type": "event"
    },
    {
      "anonymous": false,
      "inputs": [
        {
          "indexed": false,
          "name": "_participant",
          "type": "address"
        },
        {
          "indexed": false,
          "name": "_amountTkns",
          "type": "uint256"
        }
      ],
      "name": "LogBonusTokensSent",
      "type": "event"
    },
    {
      "anonymous": false,
      "inputs": [
        {
          "indexed": true,
          "name": "previousOwner",
          "type": "address"
        },
        {
          "indexed": true,
          "name": "newOwner",
          "type": "address"
        }
      ],
      "name": "OwnershipTransferred",
      "type": "event"
    },
    {
      "constant": false,
      "inputs": [],
      "name": "buyTokens",
      "outputs": [
        {
          "name": "",
          "type": "uint8"
        }
      ],
      "payable": true,
      "stateMutability": "payable",
      "type": "function"
    },
    {
      "constant": false,
      "inputs": [
        {
          "name": "_price",
          "type": "uint256"
        }
      ],
      "name": "setEtherPrice",
      "outputs": [],
      "payable": false,
      "stateMutability": "nonpayable",
      "type": "function"
    },
    {
      "constant": false,
      "inputs": [],
      "name": "pauseContract",
      "outputs": [],
      "payable": false,
      "stateMutability": "nonpayable",
      "type": "function"
    },
    {
      "constant": false,
      "inputs": [],
      "name": "unpauseContract",
      "outputs": [],
      "payable": false,
      "stateMutability": "nonpayable",
      "type": "function"
    },
    {
      "constant": false,
      "inputs": [
        {
          "name": "_address",
          "type": "address[]"
        }
      ],
      "name": "denyWhitelist",
      "outputs": [],
      "payable": false,
      "stateMutability": "nonpayable",
      "type": "function"
    },
    {
      "constant": false,
      "inputs": [
        {
          "name": "_address",
          "type": "address[]"
        }
      ],
      "name": "OneEthWhitelist",
      "outputs": [],
      "payable": false,
      "stateMutability": "nonpayable",
      "type": "function"
    },
    {
      "constant": false,
      "inputs": [
        {
          "name": "_address",
          "type": "address[]"
        }
      ],
      "name": "TenEthWhitelist",
      "outputs": [],
      "payable": false,
      "stateMutability": "nonpayable",
      "type": "function"
    },
    {
      "constant": false,
      "inputs": [
        {
          "name": "_address",
          "type": "address[]"
        }
      ],
      "name": "NoLimitEthWhitelist",
      "outputs": [],
      "payable": false,
      "stateMutability": "nonpayable",
      "type": "function"
    },
    {
      "constant": false,
      "inputs": [],
      "name": "ownerWithdrawal",
      "outputs": [
        {
          "name": "success",
          "type": "bool"
        }
      ],
      "payable": false,
      "stateMutability": "nonpayable",
      "type": "function"
    },
    {
      "constant": false,
      "inputs": [
        {
          "name": "_internalTokens",
          "type": "uint256"
        }
      ],
      "name": "finalize",
      "outputs": [],
      "payable": false,
      "stateMutability": "nonpayable",
      "type": "function"
    },
    {
      "constant": false,
      "inputs": [],
      "name": "claimTokens",
      "outputs": [],
      "payable": false,
      "stateMutability": "nonpayable",
      "type": "function"
    },
    {
      "constant": false,
      "inputs": [],
      "name": "claimBonusTokens",
      "outputs": [],
      "payable": false,
      "stateMutability": "nonpayable",
      "type": "function"
    },
    {
      "constant": false,
      "inputs": [],
      "name": "claimRefund",
      "outputs": [
        {
          "name": "success",
          "type": "bool"
        }
      ],
      "payable": false,
      "stateMutability": "nonpayable",
      "type": "function"
    },
    {
      "constant": false,
      "inputs": [],
      "name": "claimRemainingWei",
      "outputs": [
        {
          "name": "success",
          "type": "bool"
        }
      ],
      "payable": false,
      "stateMutability": "nonpayable",
      "type": "function"
    }
  ],
  "bytecode": "0x606060405234156200001057600080fd5b60405160608062002a8383398101604052808051906020019091908051906020019091908051906020019091905050600080336000806101000a81548173ffffffffffffffffffffffffffffffffffffffff021916908373ffffffffffffffffffffffffffffffffffffffff16021790555060008573ffffffffffffffffffffffffffffffffffffffff1614151515620000a957600080fd5b60008473ffffffffffffffffffffffffffffffffffffffff1614151515620000d057600080fd5b60008373ffffffffffffffffffffffffffffffffffffffff1614151515620000f757600080fd5b62473100420160018190555082600960006101000a81548173ffffffffffffffffffffffffffffffffffffffff021916908373ffffffffffffffffffffffffffffffffffffffff160217905550600060028190555083600860026101000a81548173ffffffffffffffffffffffffffffffffffffffff021916908373ffffffffffffffffffffffffffffffffffffffff16021790555084600460006101000a81548173ffffffffffffffffffffffffffffffffffffffff021916908373ffffffffffffffffffffffffffffffffffffffff16021790555033600560006101000a81548173ffffffffffffffffffffffffffffffffffffffff021916908373ffffffffffffffffffffffffffffffffffffffff16021790555062278d00600154016006819055506904f73a1fc4933e280000600781905550600091505b600160040360ff168260ff1610156200029557600b60008360ff1660ff16815260200190815260200160002090506402540be4006305f5e10002816000018190555081600a02601e0360ff168160030181905550818060010192505062000233565b6402540be40063067f354002600b6000600360ff1681526020019081526020016000206000018190555050505050506127af80620002d46000396000f300606060405260043610610154576000357c0100000000000000000000000000000000000000000000000000000000900463ffffffff16806305261aea146101b257806309212137146101d557806309e69ede1461022f57806318cd3ace146102ac57806322ba50611461030157806323a670671461035b57806327187991146103b0578063355274ea146103d35780633e16610b146103fc5780634042b66f14610456578063439766ce1461047f57806348c54b9d146104945780637e1055b6146104a957806388c9cb3c146104d25780638d859f3e146104fb5780638da5cb5b14610524578063b33712c514610579578063b5545a3c1461058e578063b8beb5b6146105bb578063d0febe4c14610615578063e28d8c4b14610639578063e79bf13b1461064e578063f27a0447146106a3578063f2fde38b146106d0578063fe2f5bde14610709578063ff186b2e14610736575b600560009054906101000a900473ffffffffffffffffffffffffffffffffffffffff1673ffffffffffffffffffffffffffffffffffffffff163373ffffffffffffffffffffffffffffffffffffffff161415156101b057600080fd5b005b34156101bd57600080fd5b6101d3600480803590602001909190505061075f565b005b34156101e057600080fd5b61022d6004808035906020019082018035906020019080806020026020016040519081016040528093929190818152602001838360200280828437820191505050505050919050506109ff565b005b341561023a57600080fd5b610266600480803573ffffffffffffffffffffffffffffffffffffffff16906020019091905050610b2d565b6040518086815260200185815260200184815260200183600481111561028857fe5b60ff1681526020018260ff1660ff1681526020019550505050505060405180910390f35b34156102b757600080fd5b6102bf610b7d565b604051808273ffffffffffffffffffffffffffffffffffffffff1673ffffffffffffffffffffffffffffffffffffffff16815260200191505060405180910390f35b341561030c57600080fd5b610359600480803590602001908201803590602001908080602002602001604051908101604052809392919081815260200183836020028082843782019150505050505091905050610ba3565b005b341561036657600080fd5b61036e610cd1565b604051808273ffffffffffffffffffffffffffffffffffffffff1673ffffffffffffffffffffffffffffffffffffffff16815260200191505060405180910390f35b34156103bb57600080fd5b6103d16004808035906020019091905050610cf7565b005b34156103de57600080fd5b6103e6610d5c565b6040518082815260200191505060405180910390f35b341561040757600080fd5b610454600480803590602001908201803590602001908080602002602001604051908101604052809392919081815260200183836020028082843782019150505050505091905050610d62565b005b341561046157600080fd5b610469610e90565b6040518082815260200191505060405180910390f35b341561048a57600080fd5b610492610e96565b005b341561049f57600080fd5b6104a7610f0e565b005b34156104b457600080fd5b6104bc611245565b6040518082815260200191505060405180910390f35b34156104dd57600080fd5b6104e561124b565b6040518082815260200191505060405180910390f35b341561050657600080fd5b61050e611251565b6040518082815260200191505060405180910390f35b341561052f57600080fd5b610537611257565b604051808273ffffffffffffffffffffffffffffffffffffffff1673ffffffffffffffffffffffffffffffffffffffff16815260200191505060405180910390f35b341561058457600080fd5b61058c61127d565b005b341561059957600080fd5b6105a16112f5565b604051808215151515815260200191505060405180910390f35b34156105c657600080fd5b610613600480803590602001908201803590602001908080602002602001604051908101604052809392919081815260200183836020028082843782019150505050505091905050611587565b005b61061d6116b5565b604051808260ff1660ff16815260200191505060405180910390f35b341561064457600080fd5b61064c611c48565b005b341561065957600080fd5b6106616120da565b604051808273ffffffffffffffffffffffffffffffffffffffff1673ffffffffffffffffffffffffffffffffffffffff16815260200191505060405180910390f35b34156106ae57600080fd5b6106b6612100565b604051808215151515815260200191505060405180910390f35b34156106db57600080fd5b610707600480803573ffffffffffffffffffffffffffffffffffffffff1690602001909190505061225f565b005b341561071457600080fd5b61071c6123b4565b604051808215151515815260200191505060405180910390f35b341561074157600080fd5b6107496125be565b6040518082815260200191505060405180910390f35b600754600254101580610773575060015442115b80610785575060006107836125c4565b145b151561079057600080fd5b6000809054906101000a900473ffffffffffffffffffffffffffffffffffffffff1673ffffffffffffffffffffffffffffffffffffffff163373ffffffffffffffffffffffffffffffffffffffff161415156107eb57600080fd5b62278d004201600681905550600960009054906101000a900473ffffffffffffffffffffffffffffffffffffffff1673ffffffffffffffffffffffffffffffffffffffff1663aafc057f426040518263ffffffff167c010000000000000000000000000000000000000000000000000000000002815260040180828152602001915050600060405180830381600087803b151561088757600080fd5b6102c65a03f1151561089857600080fd5b505050600860029054906101000a900473ffffffffffffffffffffffffffffffffffffffff1673ffffffffffffffffffffffffffffffffffffffff166323b872dd600560009054906101000a900473ffffffffffffffffffffffffffffffffffffffff16600960009054906101000a900473ffffffffffffffffffffffffffffffffffffffff16846000604051602001526040518463ffffffff167c0100000000000000000000000000000000000000000000000000000000028152600401808473ffffffffffffffffffffffffffffffffffffffff1673ffffffffffffffffffffffffffffffffffffffff1681526020018373ffffffffffffffffffffffffffffffffffffffff1673ffffffffffffffffffffffffffffffffffffffff1681526020018281526020019350505050602060405180830381600087803b15156109e057600080fd5b6102c65a03f115156109f157600080fd5b505050604051805190505050565b60008060009054906101000a900473ffffffffffffffffffffffffffffffffffffffff1673ffffffffffffffffffffffffffffffffffffffff163373ffffffffffffffffffffffffffffffffffffffff16141515610a5c57600080fd5b600754600254101580610a70575060015442115b80610a8257506000610a806125c4565b145b1515610a8d57600080fd5b600090505b81518160ff161015610b29576001600a6000848460ff16815181101515610ab557fe5b9060200190602002015173ffffffffffffffffffffffffffffffffffffffff1673ffffffffffffffffffffffffffffffffffffffff16815260200190815260200160002060030160006101000a81548160ff02191690836004811115610b1757fe5b02179055508080600101915050610a92565b5050565b600a6020528060005260406000206000915090508060000154908060010154908060020154908060030160009054906101000a900460ff16908060050160009054906101000a900460ff16905085565b600860029054906101000a900473ffffffffffffffffffffffffffffffffffffffff1681565b60008060009054906101000a900473ffffffffffffffffffffffffffffffffffffffff1673ffffffffffffffffffffffffffffffffffffffff163373ffffffffffffffffffffffffffffffffffffffff16141515610c0057600080fd5b600754600254101580610c14575060015442115b80610c2657506000610c246125c4565b145b1515610c3157600080fd5b600090505b81518160ff161015610ccd576002600a6000848460ff16815181101515610c5957fe5b9060200190602002015173ffffffffffffffffffffffffffffffffffffffff1673ffffffffffffffffffffffffffffffffffffffff16815260200190815260200160002060030160006101000a81548160ff02191690836004811115610cbb57fe5b02179055508080600101915050610c36565b5050565b600960009054906101000a900473ffffffffffffffffffffffffffffffffffffffff1681565b6000809054906101000a900473ffffffffffffffffffffffffffffffffffffffff1673ffffffffffffffffffffffffffffffffffffffff163373ffffffffffffffffffffffffffffffffffffffff16141515610d5257600080fd5b8060038190555050565b60075481565b60008060009054906101000a900473ffffffffffffffffffffffffffffffffffffffff1673ffffffffffffffffffffffffffffffffffffffff163373ffffffffffffffffffffffffffffffffffffffff16141515610dbf57600080fd5b600754600254101580610dd3575060015442115b80610de557506000610de36125c4565b145b1515610df057600080fd5b600090505b81518160ff161015610e8c576002600a6000848460ff16815181101515610e1857fe5b9060200190602002015173ffffffffffffffffffffffffffffffffffffffff1673ffffffffffffffffffffffffffffffffffffffff16815260200190815260200160002060030160006101000a81548160ff02191690836004811115610e7a57fe5b02179055508080600101915050610df5565b5050565b60025481565b6000809054906101000a900473ffffffffffffffffffffffffffffffffffffffff1673ffffffffffffffffffffffffffffffffffffffff163373ffffffffffffffffffffffffffffffffffffffff16141515610ef157600080fd5b6001600860016101000a81548160ff021916908315150217905550565b600080600754600254101580610f25575060015442115b80610f3757506000610f356125c4565b145b1515610f4257600080fd5b600a60003373ffffffffffffffffffffffffffffffffffffffff1673ffffffffffffffffffffffffffffffffffffffff168152602001908152602001600020915060026004811115610f9057fe5b8260030160009054906101000a900460ff166004811115610fad57fe5b1480610fe0575060036004811115610fc157fe5b8260030160009054906101000a900460ff166004811115610fde57fe5b145b806110115750600480811115610ff257fe5b8260030160009054906101000a900460ff16600481111561100f57fe5b145b151561101c57600080fd5b600082600101541415151561103057600080fd5b81600101549050600082600101819055507f120b52be1bf931a0d5b46419b65b556fb4756d14da505096d3d415a0a0aff48d600560009054906101000a900473ffffffffffffffffffffffffffffffffffffffff163383604051808473ffffffffffffffffffffffffffffffffffffffff1673ffffffffffffffffffffffffffffffffffffffff1681526020018373ffffffffffffffffffffffffffffffffffffffff1673ffffffffffffffffffffffffffffffffffffffff168152602001828152602001935050505060405180910390a1600860029054906101000a900473ffffffffffffffffffffffffffffffffffffffff1673ffffffffffffffffffffffffffffffffffffffff166323b872dd600560009054906101000a900473ffffffffffffffffffffffffffffffffffffffff1633846000604051602001526040518463ffffffff167c0100000000000000000000000000000000000000000000000000000000028152600401808473ffffffffffffffffffffffffffffffffffffffff1673ffffffffffffffffffffffffffffffffffffffff1681526020018373ffffffffffffffffffffffffffffffffffffffff1673ffffffffffffffffffffffffffffffffffffffff1681526020018281526020019350505050602060405180830381600087803b151561122557600080fd5b6102c65a03f1151561123657600080fd5b50505060405180519050505050565b60015481565b60065481565b614e2081565b600560009054906101000a900473ffffffffffffffffffffffffffffffffffffffff1681565b6000809054906101000a900473ffffffffffffffffffffffffffffffffffffffff1673ffffffffffffffffffffffffffffffffffffffff163373ffffffffffffffffffffffffffffffffffffffff161415156112d857600080fd5b6000600860016101000a81548160ff021916908315150217905550565b6000806000806000801515600860019054906101000a900460ff16151514151561131e57600080fd5b600754600254101580611332575060015442115b80611344575060006113426125c4565b145b151561134f57600080fd5b600a60003373ffffffffffffffffffffffffffffffffffffffff1673ffffffffffffffffffffffffffffffffffffffff16815260200190815260200160002093506001600481111561139d57fe5b8460030160009054906101000a900460ff1660048111156113ba57fe5b1415156113c657600080fd5b60008460000154141515156113da57600080fd5b6113f58460020154856000015461268190919063ffffffff16565b925083600401805490509150600084600201819055506000846000018190555060008460010181905550600090505b818160ff1610156114d1576000846004018260ff1681548110151561144557fe5b9060005260206000209060030201600001819055506000846004018260ff1681548110151561147057fe5b9060005260206000209060030201600101819055506000846004018260ff1681548110151561149b57fe5b906000526020600020906003020160020160006101000a81548160ff021916908360ff1602179055508080600101915050611424565b7fd12a586367c09dd681027772d8157ee14523005f0ce84429f944c3c4fb39bbe53384604051808373ffffffffffffffffffffffffffffffffffffffff1673ffffffffffffffffffffffffffffffffffffffff1681526020018281526020019250505060405180910390a13373ffffffffffffffffffffffffffffffffffffffff166108fc849081150290604051600060405180830381858888f19350505050151561157c57600080fd5b600194505050505090565b60008060009054906101000a900473ffffffffffffffffffffffffffffffffffffffff1673ffffffffffffffffffffffffffffffffffffffff163373ffffffffffffffffffffffffffffffffffffffff161415156115e457600080fd5b6007546002541015806115f8575060015442115b8061160a575060006116086125c4565b145b151561161557600080fd5b600090505b81518160ff1610156116b1576004600a6000848460ff1681518110151561163d57fe5b9060200190602002015173ffffffffffffffffffffffffffffffffffffffff1673ffffffffffffffffffffffffffffffffffffffff16815260200190815260200160002060030160006101000a81548160ff0219169083600481111561169f57fe5b0217905550808060010191505061161a565b5050565b6000806000806000806000806000806000806007546002541080156116db575060015442105b80156116ee575060006116ec6125c4565b115b15156116f957600080fd5b60001515600860019054906101000a900460ff16151514151561171b57600080fd5b6000803690501480611731575060046000369050145b151561173c57600080fd5b600560009054906101000a900473ffffffffffffffffffffffffffffffffffffffff1673ffffffffffffffffffffffffffffffffffffffff163373ffffffffffffffffffffffffffffffffffffffff161415151561179957600080fd5b6000600354141515156117ab57600080fd5b670de0b6b3a764000034101515156117c257600080fd5b349a506117e2614e20670de0b6b3a764000061269f90919063ffffffff16565b9850600860009054906101000a900460ff169250600a60003373ffffffffffffffffffffffffffffffffffffffff1673ffffffffffffffffffffffffffffffffffffffff16815260200190815260200160002091505b888b1015801561185e5750600460ff16600860009054906101000a900460ff1660ff1614155b15611b9b57600b6000600860009054906101000a900460ff1660ff1660ff16815260200190815260200160002090506118b76402540be4006118a98b8e61269f90919063ffffffff16565b6126ba90919063ffffffff16565b96506118e360646118d58984600301546126ba90919063ffffffff16565b61269f90919063ffffffff16565b9550611900816001015482600001546126f590919063ffffffff16565b97508787141561193d576008600081819054906101000a900460ff168092919060010191906101000a81548160ff021916908360ff160217905550505b87871115611a815761195888886126f590919063ffffffff16565b9650878160010160008282540192505081905550878a01995061199b6402540be40061198d8b8b6126ba90919063ffffffff16565b61269f90919063ffffffff16565b94508160040180548060010182816119b3919061270e565b916000526020600020906003020160006060604051908101604052808a8152602001856003015481526020018760ff168152509091909150600082015181600001556020820151816001015560408201518160020160006101000a81548160ff021916908360ff160217905550505050611a36858c6126f590919063ffffffff16565b9a508482600001600082825401925050819055506008600081819054906101000a900460ff168092919060010191906101000a81548160ff021916908360ff16021790555050611b96565b868160010160008282540192505081905550868a019950611ad4611ac56402540be400611ab78c8b6126ba90919063ffffffff16565b61269f90919063ffffffff16565b8c6126f590919063ffffffff16565b9a50611ae98b346126f590919063ffffffff16565b93508a8260020160008282540192505081905550838260000160008282540192505081905550816004018054806001018281611b25919061270e565b916000526020600020906003020160006060604051908101604052808a8152602001856003015481526020018760ff168152509091909150600082015181600001556020820151816001015560408201518160020160006101000a81548160ff021916908360ff1602179055505050505b611838565b898260010160008282540192505081905550346002600082825401925050819055507f6387c93d20b3ff07ec699718ca35c71c5a2a744b6cf874e48db2d3ce8c74db10338b604051808373ffffffffffffffffffffffffffffffffffffffff1673ffffffffffffffffffffffffffffffffffffffff1681526020018281526020019250505060405180910390a1600860009054906101000a900460ff169b50505050505050505050505090565b6000806000806000600754600254101580611c64575060015442115b80611c7657506000611c746125c4565b145b1515611c8157600080fd5b600a60003373ffffffffffffffffffffffffffffffffffffffff1673ffffffffffffffffffffffffffffffffffffffff168152602001908152602001600020945060065442111515611cd257600080fd5b60065442118015611cea575062278d00600654014211155b15611d135760018560050160009054906101000a900460ff1660ff16101515611d1257600080fd5b5b601e6006540142118015611d2e5750624f1a00600654014211155b15611d575760028560050160009054906101000a900460ff1660ff16101515611d5657600080fd5b5b605a60065401421115611d885760038560050160009054906101000a900460ff1660ff16101515611d8757600080fd5b5b84600401805490509250600091505b828260ff161015611ef5576000856004018360ff16815481101515611db857fe5b90600052602060002090600302016001015414158015611dfe57506000856004018360ff16815481101515611de957fe5b90600052602060002090600302016000015414155b15611ea057600a856004018360ff16815481101515611e1957fe5b906000526020600020906003020160010154811515611e3457fe5b04856004018360ff16815481101515611e4957fe5b906000526020600020906003020160000154811515611e6457fe5b049050600a856004018360ff16815481101515611e7d57fe5b906000526020600020906003020160010160008282540392505081905550611ea5565b600090505b600081141515611ee85780856004018360ff16815481101515611ec457fe5b90600052602060002090600302016000016000828254039250508190555080840193505b8180600101925050611d97565b84600501600081819054906101000a900460ff168092919060010191906101000a81548160ff021916908360ff160217905550507fb70ed58e7a5f89cca485dc499c0ad61566070a13d63eb935d35c3e636c00cef03385604051808373ffffffffffffffffffffffffffffffffffffffff1673ffffffffffffffffffffffffffffffffffffffff1681526020018281526020019250505060405180910390a1600860029054906101000a900473ffffffffffffffffffffffffffffffffffffffff1673ffffffffffffffffffffffffffffffffffffffff166323b872dd600560009054906101000a900473ffffffffffffffffffffffffffffffffffffffff1633876000604051602001526040518463ffffffff167c0100000000000000000000000000000000000000000000000000000000028152600401808473ffffffffffffffffffffffffffffffffffffffff1673ffffffffffffffffffffffffffffffffffffffff1681526020018373ffffffffffffffffffffffffffffffffffffffff1673ffffffffffffffffffffffffffffffffffffffff1681526020018281526020019350505050602060405180830381600087803b15156120b757600080fd5b6102c65a03f115156120c857600080fd5b50505060405180519050505050505050565b600460009054906101000a900473ffffffffffffffffffffffffffffffffffffffff1681565b60008060009054906101000a900473ffffffffffffffffffffffffffffffffffffffff1673ffffffffffffffffffffffffffffffffffffffff163373ffffffffffffffffffffffffffffffffffffffff1614151561215d57600080fd5b7fa493e960de66ff5b6d1d6e19fc3fdeee4b4b5d01b686fde2dcc4b3354d27e97d333073ffffffffffffffffffffffffffffffffffffffff1631604051808373ffffffffffffffffffffffffffffffffffffffff1673ffffffffffffffffffffffffffffffffffffffff1681526020018281526020019250505060405180910390a1600460009054906101000a900473ffffffffffffffffffffffffffffffffffffffff1673ffffffffffffffffffffffffffffffffffffffff166108fc3073ffffffffffffffffffffffffffffffffffffffff16319081150290604051600060405180830381858888f19350505050151561225857600080fd5b6001905090565b6000809054906101000a900473ffffffffffffffffffffffffffffffffffffffff1673ffffffffffffffffffffffffffffffffffffffff163373ffffffffffffffffffffffffffffffffffffffff161415156122ba57600080fd5b600073ffffffffffffffffffffffffffffffffffffffff168173ffffffffffffffffffffffffffffffffffffffff16141515156122f657600080fd5b8073ffffffffffffffffffffffffffffffffffffffff166000809054906101000a900473ffffffffffffffffffffffffffffffffffffffff1673ffffffffffffffffffffffffffffffffffffffff167f8be0079c531659141344cd1fd0a4f28419497f9722a3daafe3b4186f6b6457e060405160405180910390a3806000806101000a81548173ffffffffffffffffffffffffffffffffffffffff021916908373ffffffffffffffffffffffffffffffffffffffff16021790555050565b6000806000801515600860019054906101000a900460ff1615151415156123da57600080fd5b6007546002541015806123ee575060015442115b80612400575060006123fe6125c4565b145b151561240b57600080fd5b600a60003373ffffffffffffffffffffffffffffffffffffffff1673ffffffffffffffffffffffffffffffffffffffff16815260200190815260200160002091506002600481111561245957fe5b8260030160009054906101000a900460ff16600481111561247657fe5b14806124a957506003600481111561248a57fe5b8260030160009054906101000a900460ff1660048111156124a757fe5b145b806124da57506004808111156124bb57fe5b8260030160009054906101000a900460ff1660048111156124d857fe5b145b15156124e557600080fd5b60008260020154141515156124f957600080fd5b81600201549050600082600201819055507fd12a586367c09dd681027772d8157ee14523005f0ce84429f944c3c4fb39bbe53382604051808373ffffffffffffffffffffffffffffffffffffffff1673ffffffffffffffffffffffffffffffffffffffff1681526020018281526020019250505060405180910390a13373ffffffffffffffffffffffffffffffffffffffff166108fc829081150290604051600060405180830381858888f1935050505015156125b557600080fd5b60019250505090565b60035481565b60008060008090505b600460ff168160ff16101561267957600b60008260ff1660ff16815260200190815260200160002060000154600b60008360ff1660ff16815260200190815260200160002060010154101561266c57612667600b60008360ff1660ff16815260200190815260200160002060010154600b60008460ff1660ff168152602001908152602001600020600001546126f590919063ffffffff16565b820191505b80806001019150506125cd565b819250505090565b600080828401905083811015151561269557fe5b8091505092915050565b60008082848115156126ad57fe5b0490508091505092915050565b60008060008414156126cf57600091506126ee565b82840290508284828115156126e057fe5b041415156126ea57fe5b8091505b5092915050565b600082821115151561270357fe5b818303905092915050565b81548183558181151161273b5760030281600302836000526020600020918201910161273a9190612740565b5b505050565b61278091905b8082111561277c5760008082016000905560018201600090556002820160006101000a81549060ff021916905550600301612746565b5090565b905600a165627a7a72305820430efb1c89aafc3626bed99e883ff544b713ee3f1bf35320cafc5a7510fe7a3c0029",
  "source": "pragma solidity 0.4.19;\r\n\r\nimport './MenuToken.sol';\r\nimport './MenuTeamWallet.sol';\r\nimport './Ownable.sol';\r\nimport './SafeMath.sol';\r\n\r\ncontract MenuCrowdSale is Ownable{\r\n  using SafeMath for uint256;\r\n\r\n  uint256 constant internal MIN_CONTRIBUTION = 1 ether;\r\n  uint256 constant internal TOKEN_DECIMALS = 10**10;\r\n  uint256 constant internal ETH_DECIMALS = 10**18;\r\n  uint256 constant public PRICE = 20000; //tokens per ether\r\n  uint8 constant internal TIERS = 4;\r\n  uint256 public icoEndTime;\r\n  uint256 public weiRaised;\r\n  uint256 public ethPrice;\r\n  address public holdings;\r\n  address public owner;\r\n  uint256 public timer;\r\n  uint256 public cap;\r\n  uint8 private tier;\r\n  bool private paused;\r\n\r\n  //The MenuBuzz token and team wallet contracts\r\n  MenuToken public menuToken;\r\n  MenuTeamWallet public menuTeamWallet; \r\n  \r\n  enum WhitelistStatus{\r\n    NC, Denied, OneEth, TenEth, NoLimitEth //change to what lawyer says\r\n  }\r\n\r\n  struct Purchase {\r\n    uint256 bonusTokenAmount;//will be 10 percent of the qtyTokens amount\r\n    uint256 bonusPrcntg;\r\n    uint8 tierPurchased;\r\n  }\r\n\r\n  struct Participant{\r\n    uint256 contrAmount;\r\n    uint256 qtyTokens;\r\n    uint256 remainingWei;\r\n    WhitelistStatus wLStatus;\r\n    Purchase[] purchases;\r\n    uint8 bonusPaidCounter;\r\n  }\r\n\r\n  ///@notice risk createing open ended array will be trying during testing to limit the amount\r\n  ///gas by limiting the array size to say 10\r\n  //mapping(address => Purchase[]) public purchases;\r\n  mapping(address => Participant) public participants;\r\n\r\n  struct SaleTier {      \r\n    uint256 tokensToBeSold;  //amount of tokens to be sold in this SaleTier\r\n    uint256 tokensSold;      //amount of tokens sold in each SaleTier \r\n    uint256 tokensPerEth;\r\n    uint256 bonusAmount;    \r\n  }\r\n   \r\n  mapping(uint8 => SaleTier) saleTier;\r\n\r\n  event LogTokensClaimed(address _owner, address _msgsender, uint256 _qtyOfTokensRequested);\r\n  event LogTokensReserved(address _buyer, uint256 _amount);\r\n  event LogOwnerWithdrawal(address _owner, uint256 _amount);\r\n  event LogRefundWei(address _participant, uint256 _amount);\r\n  event LogBonusTokensSent(address _participant, uint256 _amountTkns); \r\n \r\n  modifier isValidPayload() {\r\n    require(msg.data.length == 0 || msg.data.length == 4); // double check this one\r\n    _;\r\n  }\r\n\r\n  modifier icoIsActive() {\r\n    require(weiRaised < cap && now < icoEndTime && calculateRemainingTokens() > 0);\r\n    _;\r\n  }\r\n\r\n  modifier icoHasEnded() {\r\n    require(weiRaised >= cap || now > icoEndTime || calculateRemainingTokens() == 0);\r\n    _;\r\n  }\r\n\r\n  modifier activeContract(){\r\n    require(paused == false);\r\n    _;\r\n  }\r\n\r\n  /// @dev confirm price thresholds and amounts\r\n  ///  holdings for holding ether\r\n  function MenuCrowdSale(address _holdings, address _menuToken, address _teamWallet) \r\n    public \r\n  {\r\n    require(_holdings != 0x0);\r\n    require(_menuToken != 0x0);\r\n    require(_teamWallet != 0x0);     \r\n \r\n    icoEndTime = now + 54 days; //march 7th to april 30\r\n    menuTeamWallet = MenuTeamWallet(_teamWallet);\r\n    weiRaised = 0;\r\n    menuToken = MenuToken(_menuToken);    \r\n    holdings = _holdings;\r\n    owner = msg.sender;\r\n    timer = icoEndTime + 30 days; \r\n    cap = 23450 ether;\r\n\r\n    \r\n    for(uint8 i=0; i<TIERS-1; i++){\r\n      SaleTier storage tiers = saleTier[i]; \r\n      tiers.tokensToBeSold = 100000000*TOKEN_DECIMALS;\r\n      tiers.bonusAmount = (30-(10*i)); //have to account for the decimal after\r\n    }\r\n\r\n    saleTier[3].tokensToBeSold = 109000000*TOKEN_DECIMALS;\r\n  }\r\n\r\n  /// @dev Fallback function.\r\n  /// @dev Reject random ethereum being sent to the contract.\r\n  /// @notice allows for owner to send ethereum to the contract in the event\r\n  /// of a refund\r\n  function()\r\n    public\r\n    payable\r\n  {\r\n    require(msg.sender == owner);\r\n  }\r\n\r\n  /// @notice buyer calls this function to get tokens\r\n  function buyTokens()\r\n    external\r\n    payable\r\n    icoIsActive\r\n    activeContract\r\n    isValidPayload\r\n    returns (uint8)\r\n  {\r\n    //purchases[msg.sender][arrIndex].remainingWei; //maybe add remainingWei calc after\r\n    require(msg.sender != owner);\r\n    require(ethPrice != 0);\r\n    require(msg.value >= MIN_CONTRIBUTION);\r\n\r\n    uint256 remainingWei = msg.value;\r\n    uint256 totalTokensRequested;\r\n    uint256 price = ETH_DECIMALS.div(PRICE); //wei per token\r\n    uint256 tierRemainingTokens;\r\n    uint256 tknsRequested;\r\n    uint256 bonusTokenAmount;\r\n    uint256 spentWei;\r\n    uint256 amount;\r\n    uint8 tierPurchased = tier;\r\n\r\n    Participant storage participant = participants[msg.sender];\r\n\r\n    while(remainingWei >= price && tier != TIERS) {\r\n\r\n      SaleTier storage tiers = saleTier[tier];\r\n      tknsRequested = remainingWei.div(price).mul(TOKEN_DECIMALS);\r\n      bonusTokenAmount = tiers.bonusAmount.mul(tknsRequested).div(100);\r\n      tierRemainingTokens = tiers.tokensToBeSold.sub(tiers.tokensSold);\r\n      if(tknsRequested == tierRemainingTokens){tier++;}\r\n      if(tknsRequested > tierRemainingTokens){\r\n        tknsRequested = tknsRequested.sub(tierRemainingTokens);\r\n        tiers.tokensSold += tierRemainingTokens;\r\n        totalTokensRequested += tierRemainingTokens;\r\n        spentWei = tierRemainingTokens.mul(price).div(TOKEN_DECIMALS);\r\n        participant.purchases.push(Purchase(bonusTokenAmount,tiers.bonusAmount,tierPurchased));\r\n        remainingWei = remainingWei.sub(spentWei);\r\n        participant.contrAmount += spentWei;\r\n        tier++;\r\n      } else{\r\n        tiers.tokensSold += tknsRequested;\r\n        totalTokensRequested += tknsRequested;\r\n        remainingWei = remainingWei.sub(tknsRequested.mul(price).div(TOKEN_DECIMALS));\r\n        amount = msg.value.sub(remainingWei);\r\n        participant.remainingWei += remainingWei;\r\n        participant.contrAmount += amount;\r\n        participant.purchases.push(Purchase(bonusTokenAmount, tiers.bonusAmount, tierPurchased));\r\n      }   \r\n    }\r\n    participant.qtyTokens += totalTokensRequested;\r\n    weiRaised += msg.value;\r\n    LogTokensReserved(msg.sender, totalTokensRequested);\r\n    return tier;\r\n  }\r\n\r\n  ///@notice I want to get the price of ethereum every time I call the buy tokens function\r\n  ///what has to change in this function to make that happen safely\r\n  ///param ethereum price will exclude decimals\r\n  function setEtherPrice(uint256 _price)\r\n    external\r\n    onlyOwner\r\n    {\r\n      ethPrice = _price;\r\n    }\r\n\r\n  /// @notice pause specific funtions of the contract\r\n  function pauseContract() public onlyOwner {\r\n    paused = true;\r\n  }\r\n\r\n  /// @notice to unpause functions\r\n  function unpauseContract() public onlyOwner {\r\n    paused = false;\r\n  } \r\n\r\n  ///@notice interface for founders to deny participants\r\n  function denyWhitelist(address[] _address) \r\n    public \r\n    onlyOwner\r\n    icoHasEnded \r\n  {\r\n    for(uint8 i = 0; i < _address.length; i++){\r\n      participants[_address[i]].wLStatus = WhitelistStatus.Denied;      \r\n    }\r\n  }\r\n\r\n  ///@notice interface for founders to whitelist participants\r\n  function OneEthWhitelist(address[] _address) \r\n    public \r\n    onlyOwner\r\n    icoHasEnded \r\n  {\r\n    for(uint8 i = 0; i < _address.length; i++){\r\n      participants[_address[i]].wLStatus = WhitelistStatus.OneEth;      \r\n    }\r\n  }\r\n\r\n  ///@notice interface for founders to whitelist participants\r\n  function TenEthWhitelist(address[] _address) \r\n    public \r\n    onlyOwner\r\n    icoHasEnded \r\n  {\r\n    for(uint8 i = 0; i < _address.length; i++){\r\n      participants[_address[i]].wLStatus = WhitelistStatus.OneEth;      \r\n    }\r\n  }\r\n\r\n  ///@notice interface for founders to whitelist participants\r\n  function NoLimitEthWhitelist(address[] _address) \r\n    public \r\n    onlyOwner\r\n    icoHasEnded \r\n  {\r\n    for(uint8 i = 0; i < _address.length; i++){\r\n      participants[_address[i]].wLStatus = WhitelistStatus.NoLimitEth;      \r\n    }\r\n  }\r\n\r\n  ///@notice owner withdraws ether periodically from the crowdsale contract\r\n  function ownerWithdrawal()\r\n    public\r\n    onlyOwner\r\n    returns(bool success)\r\n  {\r\n    LogOwnerWithdrawal(msg.sender, this.balance);//do we really want to broadcast this\r\n    holdings.transfer(this.balance);\r\n    return(true); \r\n  }\r\n\r\n  /// @dev freeze unsold tokens for use at a later time\r\n  /// and transfer team, owner and other internally promised tokens\r\n  /// param total number of tokens being transfered to the freeze wallet\r\n  function finalize(uint256 _internalTokens)\r\n    public\r\n    icoHasEnded\r\n    onlyOwner\r\n  {\r\n    timer = now + 30 days;\r\n    menuTeamWallet.setFreezeTime(now);\r\n    menuToken.transferFrom(owner, menuTeamWallet, _internalTokens);  \r\n  }\r\n\r\n  /// @notice calculate unsold tokens for transfer to holdings to be used at a later date\r\n  function calculateRemainingTokens()\r\n    view\r\n    internal\r\n    returns (uint256)\r\n  {\r\n    uint256 remainingTokens;\r\n    for(uint8 i = 0; i < TIERS; i++){\r\n      if(saleTier[i].tokensSold < saleTier[i].tokensToBeSold){\r\n        remainingTokens += saleTier[i].tokensToBeSold.sub(saleTier[i].tokensSold);\r\n      }\r\n    }\r\n    return remainingTokens;\r\n  }\r\n\r\n  /// notice sends requested tokens to the whitelist person\r\n  function claimTokens() \r\n    external\r\n    icoHasEnded\r\n  {\r\n    Participant storage participant = participants[msg.sender];\r\n    require(participant.wLStatus == WhitelistStatus.OneEth || participant.wLStatus == WhitelistStatus.TenEth || participant.wLStatus == WhitelistStatus.NoLimitEth);\r\n    require(participant.qtyTokens != 0);\r\n    uint256 tkns = participant.qtyTokens;\r\n    participant.qtyTokens = 0;\r\n    LogTokensClaimed(owner, msg.sender, tkns);\r\n    menuToken.transferFrom(owner, msg.sender, tkns);\r\n  }\r\n\r\n  ///@notice participants can claim their bonus tokens here after the distribute Remaining Tokens function \r\n  function claimBonusTokens()\r\n    public\r\n    icoHasEnded\r\n  {\r\n    Participant storage participant = participants[msg.sender];\r\n    require(now > timer);\r\n    if(now > timer && now <= timer + 30 days){ require(participant.bonusPaidCounter < 1);}\r\n    if(now > timer + 30 && now <= timer + 60 days){require(participant.bonusPaidCounter < 2);}\r\n    if(now > timer + 90){require(participant.bonusPaidCounter < 3);}\r\n   \r\n    uint256 bonusTokens;\r\n    uint256 purch = participant.purchases.length;\r\n\r\n    for(uint8 i = 0; i < purch; i++){\r\n\r\n      uint256 tenPercQtyTkns;\r\n      if(participant.purchases[i].bonusPrcntg != 0 && participant.purchases[i].bonusTokenAmount != 0){\r\n        tenPercQtyTkns = participant.purchases[i].bonusTokenAmount/(participant.purchases[i].bonusPrcntg/10); // should give one third one half or 1 tenth of the investment amount\r\n        participant.purchases[i].bonusPrcntg -= 10;\r\n      } else {\r\n        tenPercQtyTkns = 0;\r\n      }\r\n      if(tenPercQtyTkns != 0){\r\n        participant.purchases[i].bonusTokenAmount -= tenPercQtyTkns;\r\n        bonusTokens += tenPercQtyTkns;\r\n      } \r\n    }\r\n    participant.bonusPaidCounter++;\r\n    LogBonusTokensSent(msg.sender, bonusTokens); \r\n    menuToken.transferFrom(owner, msg.sender, bonusTokens); \r\n  }\r\n\r\n  /// @notice no ethereum will be held in the crowdsale contract\r\n  /// when refunds become available the amount of Ethererum needed will\r\n  /// be manually transfered back to the crowdsale to be refunded\r\n  function claimRefund()\r\n    external\r\n    activeContract\r\n    icoHasEnded\r\n    returns (bool success)\r\n  {\r\n    Participant storage participant = participants[msg.sender];\r\n    require(participant.wLStatus == WhitelistStatus.Denied);\r\n    require(participant.contrAmount != 0);\r\n    uint256 sendValue = participant.contrAmount.add(participant.remainingWei);\r\n    uint256 purch = participant.purchases.length;\r\n    participant.remainingWei = 0;\r\n    participant.contrAmount = 0;\r\n    participant.qtyTokens = 0;\r\n    for(uint8 i = 0; i < purch; i++){\r\n        participant.purchases[i].bonusTokenAmount = 0;\r\n        participant.purchases[i].bonusPrcntg = 0;\r\n        participant.purchases[i].tierPurchased = 0;\r\n    }\r\n    LogRefundWei(msg.sender, sendValue);\r\n    msg.sender.transfer(sendValue);\r\n    return true;\r\n  }\r\n\r\n  /// @notice no ethereum will be held in the crowdsale contract\r\n  /// when refunds become available the amount of Ethererum needed will\r\n  /// be manually transfered back to the crowdsale to be refunded\r\n  /// @notice only the last person that buys tokens if they deposited enought to buy more \r\n  /// tokens than what is available will be able to use this function\r\n  function claimRemainingWei()\r\n    external\r\n    activeContract\r\n    icoHasEnded\r\n    returns (bool success)\r\n  {\r\n    Participant storage participant = participants[msg.sender];\r\n    require(participant.wLStatus == WhitelistStatus.OneEth || participant.wLStatus == WhitelistStatus.TenEth || participant.wLStatus == WhitelistStatus.NoLimitEth);\r\n    require(participant.remainingWei != 0);\r\n    uint256 amount = participant.remainingWei;\r\n    participant.remainingWei = 0;\r\n    \r\n    LogRefundWei(msg.sender, amount);\r\n    msg.sender.transfer(amount);\r\n    return true;\r\n  }\r\n}\r\n",
  "sourcePath": "D:\\Projects\\MenuBuzz\\contracts\\MenuCrowdSale.sol",
  "compiler": {
    "name": "solc",
    "version": "0.4.19+commit.c4cbbb05.Emscripten.clang"
  },
  "schemaVersion": "1.0.1",
  "updatedAt": "2018-02-28T01:26:40.841Z"
}